:020000040800F2
:1000000008050020A9160008ED020008EF0200080C
:10001000F3020008F7020008FB02000800000000DD
:10002000000000000000000000000000FF020008C7
:100030000103000800000000030300080503000896
:10004000C3160008C3160008C3160008C31600082C
:10005000C3160008C3160008C3160008C31600081C
:10006000C3160008C3160008C3160008C31600080C
:10007000C3160008C3160008C3160008C3160008FC
:10008000C3160008C3160008C3160008C3160008EC
:10009000C3160008C3160008C316000807030008AB
:1000A000C3160008C3160008C3160008C3160008CC
:1000B000C316000809030008C3160008C316000889
:1000C000C3160008C3160008C3160008C3160008AC
:1000D000C3160008C3160008C316000899030008D9
:1000E000C3160008C3160008C3160008C31600088C
:1000F000C3160008C3160008C3160008C31600087C
:10010000C3160008C3160008C3160008C31600086B
:10011000C3160008C3160008C3160008C31600085B
:10012000C3160008C3160008C3160008C31600084B
:10013000DFF80CD003F0D2FB004800475102000862
:100140000805002010B504460021204603F0A8FA57
:1001500002D284F0004010BD2046FCE72DE9F047B4
:1001600004460E4615465449286803F0A3FA07D200
:100170005148286006205149486100208861C861C3
:100180004F49286803F08CFA07D24D4828600620B2
:100190004A49486100208861C8613146286802F0F8
:1001A000F9FF60616169E06802F0A2FFE060454923
:1001B000E06803F07FFA01D24248E0604249E0681B
:1001C00003F06EFA01D24048E060D4E9050102F084
:1001D000E1FF20612169A06802F0E2FF8046E1684A
:1001E000606802F0DDFF81466169206802F0D8FF97
:1001F0008246494602F07CFF0746414602F078FFFE
:10020000E0616069A0613149E06903F053FA02D20C
:100210002E48E06106E02E49E06903F041FA01D280
:100220002B48E061BDE8F08770B504460D464021DB
:10023000284802F0FEFEE0B22649091D088000BFF2
:100240002448008800F040000028F9D0204670BD06
:1002500000F0BAFF00F029FE00F0B1FA00F0B5FAA4
:1002600000F0C3FA00F030FBD82140F2E73000F094
:10027000D9FA00F096FB00F0E3FB4FF4E13000F018
:1002800041FB17E000F0C5FF13490860134B0B4A10
:1002900008460168124801F057F8084A11480168F9
:1002A0000F48006800F01FFE0F4800F0E7FE0B4803
:1002B00000F034FCE6E7000000007A430400002070
:1002C00000007AC30080BB450080BBC500007A44B3
:1002D00000007AC4004800403400002024000020C0
:1002E0000000002058000020CC000020704700BF14
:1002F000FEE700BFFEE700BFFEE700BFFEE7704776
:10030000704770477047704710B50121D84802F018
:10031000C4FCB8B10121D64802F0D0FCD548006831
:10032000401CD4490860084600684CF250318842AD
:1003300002D10020CF490860CE48CF490268CF489B
:1003400000F036FC10BD0146A1F12B000F2821D290
:10035000DFE800F01C201E2020080A0C0E101214EA
:1003600016181A00002070470120FCE70220FAE767
:100370000320F8E70420F6E70520F4E70620F2E77B
:100380000720F0E70820EEE70920ECE70B20EAE77A
:100390000C20E8E70A20E6E72DE9F04F89B00021BC
:1003A000B748CDE9061014200590002440F22551ED
:1003B000B44802F047FE002878D040F22551B148F9
:1003C00002F06AFEAF4802F0BDFD00F0FF0ABAF18C
:1003D000230F0FD0AC48AD49096800F801A0AB4825
:1003E0000068401CA949086008460068072801DB2E
:1003F00007200860BAF1230F58D1A4480068401EB6
:10040000A149085C41287DD04C2802D052284CD10B
:100410004DE04FF000091AE09B4911F80900FFF781
:1004200092FF834699490968A1EB0901881E03F0F0
:10043000BDF807463A460B460020954903F00CFCF0
:10044000054603F0F1F80BFB004409F101098F4860
:100450000068401E4845DFDC632C00DB6324012C70
:1004600000DC0124323C002C04DA64420C2089496F
:10047000086002E00B208749086005984443642027
:1004800094FBF0F083494860642094FBF0F100FB9A
:1004900011400A2190FBF1F07E4988600A2094FB0C
:1004A000F0F100FB11407B49C86081E0DDE04FF0D6
:1004B00000091AE0744911F80900FFF744FF834668
:1004C00072490968A1EB0901881E03F06FF805461F
:1004D0002A460B4600206E4903F0BEFB074603F098
:1004E000A3F80BFB004409F1010968480068401EAD
:1004F0004845DFDC632C00DB6324012C00DC012495
:10050000323C00E02CE0002C04DA64420C2061490B
:10051000086102E00B205F490861204603F046F8BD
:100520000746DDE9062302F052FF054603F07CF89A
:100530000446642094FBF0F056494861642094FB23
:10054000F0F100FB11400A2190FBF1F05149886164
:100550000A2094FBF0F100FB11404E49C86127E0EE
:100560004A480068801E4849085C30280AD10020AB
:100570004849086048608860C860086148618861CF
:10058000C86114E04FF0000905E00920414941F835
:10059000290009F10109B9F1040FF6DB00203D49FA
:1005A000086102204861052088610020C86100BF01
:1005B00000BF002035490860364800680B2801DC80
:1005C000012000E000202C498860324800690B2897
:1005D00001DC012000E000202749C8602D49C868DF
:1005E00002F0E4FF05464FF033322B4B02F061FF7F
:1005F000CDE900012749496864225143254A9268A0
:1006000002EB820201EB420002F0D0FF0746DDE977
:10061000002302F035FECDE9020103F024F816496B
:1006200008601C49C86902F0C1FF05464FF033322B
:10063000194B02F03EFF0746884616494969642275
:100640005143144A926902EB820201EB420002F02C
:10065000ADFF3A464346CDE9000102F011FECDE977
:10066000020103F000F80449486009B0BDE8F08FCA
:10067000000400405800002024000020CC0000208E
:1006800000002840004800405C000020640000207A
:100690000000244004000020333303402DE9F041E2
:1006A00005460026002406E0FE49601C51F82000A3
:1006B00041F82400641C022CF6DDFA48C5600324CE
:1006C0000AE0F84951F8240002F062FF074631467B
:1006D00002F00EFD0646641E002CF2DA4FF0814156
:1006E000304602F08FFD0646304602F070FFBDE84E
:1006F000F0812DE9F05F824600210D460E46002470
:1007000006E0E949601C51F8200041F82400641C0F
:10071000062CF6DDE448C0F818A0062428E04FF0C7
:10072000000922E0C4F10600DF4951F82000C4F1BD
:1007300006014944DC4A52F82110884213DAC4F118
:100740000600114651F820B0C4F10600484451F8A3
:100750002000C4F1060142F82100C4F1060048441B
:10076000114641F820B009F10109A145DADD641E06
:10077000002CD4DA06240CE0CB4951F8240002F016
:1007800015FF07462A46334602F07AFD05460E4617
:10079000641E002CF0DA0022C44B2846314602F0D9
:1007A00088FE05460E462846314602F03DFFBE490A
:1007B00088602846314602F037FFBDE8F09F10B54B
:1007C0004FF4A06000F082FF10BD08B51D208DF829
:1007D000000002208DF801008DF8020001208DF844
:1007E0000300684600F077FF08BD0EB50121022026
:1007F00001F003FB41F61F40ADF800000020ADF80A
:1008000002000A20ADF804006946A94801F020FC66
:1008100001224121A64801F092FF0121A44801F0E4
:1008200073FF0EBD30B589B005460C46012104208A
:1008300001F0E3FA0121212001F0D2FA012108039D
:1008400001F0E3F84FF47040ADF8200018208DF867
:10085000230003208DF8220008A9964801F004F82F
:10086000ADF81850ADF814400020ADF81A00ADF8FE
:10087000160005A9904801F0EBFB6020ADF80400DC
:100880000120ADF806000020ADF80C0001A98A484F
:1008900001F0AAFC01A9884801F0F1FC0821864872
:1008A00002F078F80821844802F07DF8012182489E
:1008B00001F02AFF0021804802F0C2F900217E48A1
:1008C00002F0C0F909B030BD08B50121102001F0D7
:1008D00087FA4FF47070ADF8000003208DF8020025
:1008E00010208DF803006946744800F0BDFF4FF4F6
:1008F000A071724801F065F84FF420716F4801F063
:1009000062F808BD10B586B004460121880401F0E4
:1009100074FA0121082001F063FA4FF48060ADF809
:10092000140003208DF8160018208DF8170005A973
:10093000634800F099FF4FF40060ADF81400042004
:100940008DF8170005A95E4800F08EFF27208DF86E
:10095000000003208DF801008DF8020001208DF8C1
:100960000300684600F0B7FE01940020ADF80800CF
:10097000ADF80A00ADF80C00ADF810000C20ADF891
:100980000E0001A94F4802F0E0F9012240F2255182
:100990004C4802F072FA01214A4802F062FA06B0AD
:1009A00010BD00B587B00121082001F026FA012111
:1009B000052001F015FA06A800F0E1FF0320ADF8CC
:1009C000180004208DF81B0006A93F4800F04CFFDA
:1009D0003E4801F069FA03A801F066FE4FF4FA50B0
:1009E000ADF810000020ADF80C00ADF81200ADF825
:1009F0000E0003A9354801F02BFB0A231A460321F8
:100A0000324801F034FF684601F061FE0620ADF87F
:100A1000080069462D4801F0AEFD01212B4802F087
:100A200039F901221146294801F089FE00212748A1
:100A300002F0FEF80121254801F066FE07B000BD76
:100A400000B587B00121402001F0CAF9012140F62C
:100A5000010001F0C5F901211D4800F0D6FF06A8EC
:100A600000F08DFF4FF42060ADF8180004208DF8E1
:100A70001B0006A9174800F0F7FE174801F014FA0A
:100A800003A801F011FE4FF4FA50ADF81000002059
:100A9000ADF80C00ADF81200ADF80E0003A90E4839
:100AA0001CE00000DC000020EC00002000001C40E6
:100AB0000004004000140140000800400010014004
:100AC000000C01400048004000080140000C0040BC
:100AD000C000160000180140002C014001F0B8FAD7
:100AE0000A231A460321724801F0C1FE684601F04C
:100AF000EEFD0620ADF8080069466D4801F03BFDAB
:100B000001216B4802F0C6F80021694802F090F814
:100B10000121674801F0F8FD07B000BD70B504463B
:100B20006449A068096888421AD04021624800F0F0
:100B30003BFFC0F10100C5B22A4640215E4800F0EB
:100B400044FF80215C4800F02FFFC0F10100C5B2D6
:100B50002A468021584800F038FF5649A0680860AE
:100B6000206802F04DFD85B22946544802F068F82D
:100B700070BD10B50446002C0ADD4FF480714E485C
:100B800000F01FFF4FF400714B4800F01CFF0AE01B
:100B900064424FF40071484800F013FF4FF4807135
:100BA000454800F010FFA1B2444802F04BF810BDD8
:100BB0002DE9F04704460E461546FA2095FBF0F164
:100BC00000FB1150002841D139492431088802F036
:100BD000E8FC20603A490888FFF760FD074602F00C
:100BE000D7FC60603749606802F064FD01D20020E4
:100BF00060603549606802F053FD01D200206060FA
:100C00003249206802F056FD04D23149206802F0D2
:100C1000C1FA20602D49606802F04CFD04D22C49D5
:100C2000606802F0B7FA6060002021492431088032
:100C300023490880321D27486168FFF78FFA25494C
:100C4000C86902F0C4FC0746FFF793FF0021206843
:100C500002F030FD02D20020A06001E00120A0607F
:100C60000021606802F026FD02D20020E06001E071
:100C70000120E060FA2095FBF0F100FB1150A0B9D3
:100C80001549606802F034FA814602F0A0FC07467C
:100C90001149206802F02CFA814602F098FC804647
:100CA0003A4641460DA002F07DFEBDE8F087000007
:100CB000002C0140680000200010014000080040A6
:100CC000240C004000007A4300007AC300007A45FB
:100CD0000000FA45380000200000C84325644C2578
:100CE0006452230008B50121102001F079F810208A
:100CF0008DF803004FF4E050ADF8000003208DF8AC
:100D000002006946FE4800F0AFFD0121202001F0FD
:100D100067F810208DF803004FF6FF70ADF8000063
:100D200003208DF802006946F64800F09DFD08BDDD
:100D30004FF4FA6200FB02F100BF0A1EA1F10101AB
:100D4000FBD1704710B504464FF48061EC4800F0C9
:100D50003AFE4FF40061EA4800F035FE2146E948CA
:100D600000F038FE0A20FFF7E3FF4FF48051E4481B
:100D700000F027FE0A20FFF7DBFF4FF48051E04828
:100D800000F021FE10BD10B504464FF48061DC4830
:100D900000F017FE4FF40061D94800F014FE214620
:100DA000D84800F017FE0A20FFF7C2FF4FF4805129
:100DB000D34800F006FE0A20FFF7BAFF4FF4805137
:100DC000CF4800F000FE10BD70B504460E460EB9C7
:100DD000254601E004F1400505F18001C8B2FFF7A6
:100DE000B1FF70BD2DE9F04106460F4614461D4681
:100DF00039463046FFF7E8FF03E014F8010BFFF730
:100E0000C2FF281EA5F10105F7D1BDE8F08110B59C
:100E10000120FFF797FF10BD2DE9F04186B007468E
:100E2000884614460025002644B30CE00A20B4FB93
:100E3000F0F100FB1140303029466D1C03AA5054DC
:100E40000A20B4FBF0F4002CF0D16D1E07E0284618
:100E50006D1E03A90A5C3046761C0DF80020002D9B
:100E6000F5D103A8425D3046761C0DF800203346CC
:100E70006A4641463846FFF7B5FF05E00123A2A2C6
:100E800041463846FFF7AEFF06B0BDE8F08110B529
:100E90003820FFF757FF0C20FFF754FF0620FFF71D
:100EA00051FF0120FFF74EFF10BD10B5FFF71AFFED
:100EB000FFF7EDFF0423954A00210846FFF792FF54
:100EC0000423934A00210820FFF78CFF0423914A52
:100ED00002210020FFF786FF04238F4A0221082009
:100EE000FFF780FF10BD70B588B004460E4615466A
:100EF0002021684602F0F1F8322096FBF0F100FB69
:100F00001160192850DA082C4DD2DFE804F0040DE6
:100F1000161F28313A430120009001237F4A002107
:100F2000201DFFF75FFF3EE00120019001237B4A77
:100F30000021201DFFF756FF35E00120029001231C
:100F4000764A0021201DFFF74DFF2CE00120039081
:100F50000123724A0021201DFFF744FF23E00120F6
:100F6000049001236D4A02212046FFF73BFF1AE05F
:100F7000012005900123694A02212046FFF732FF34
:100F800011E0012006900123644A02212046FFF768
:100F900029FF08E0012007900123604A0221204632
:100FA000FFF720FF00BF00BF009888B928680B2812
:100FB00007DC0123594A921E00210420FFF712FF8B
:100FC00006E00123554A521E00210420FFF70AFFC4
:100FD000019838B952496868421801230021052058
:100FE000FFF700FF029838B94D49A868421801235D
:100FF00000210620FFF7F6FE039838B94849E86853
:101000004218012300210720FFF7ECFE049888B95D
:1010100028690B2807DC0123404A921E0221042084
:10102000FFF7E0FE06E001233C4A521E02210420A5
:10103000FFF7D8FE059838B9394968694218012385
:1010400002210520FFF7CEFE069838B93449A86979
:101050004218012302210620FFF7C4FE079838B981
:101060002F49E8694218012302210720FFF7BAFE41
:1010700008B070BD002800DA404270472DE9F84FF3
:101080000446206802F0A3FA0090FFF7F3FF8346BE
:1010900002F08CFA07464FF03332224B02F097F9F8
:1010A000054602F0C1FA8146606802F090FA0090AD
:1010B000FFF7E0FF834602F079FA07464FF033323C
:1010C000184B02F084F9054602F0AEFA8246134945
:1010D000891EA0684218012300210C20FFF782FE20
:1010E000642099FBF0F00E49451801232A4600219F
:1010F0000D20FFF777FE642099FBF0F114E000006B
:101100000010014000140140300000007F0000206A
:1011100084000020890000208E0000207E00002036
:101120006C0000203333034000FB11900A2190FB38
:10113000F1F02349451801232A4600210E20FFF72C
:1011400051FE0A2099FBF0F100FB11901C49451853
:1011500001232A4600210F20FFF744FE1949E068C9
:101160004218012302210C20FFF73CFE64209AFB69
:10117000F0F01349451801232A4602210D20FFF7FC
:1011800031FE64209AFBF0F100FB11A00A2190FBD4
:10119000F1F00B49451801232A4602210E20FFF7E2
:1011A00021FE0A209AFBF0F100FB11A0044945182A
:1011B00001232A4602210F20FFF714FEBDE8F88F15
:1011C0006C0000207C00002008B50121402000F0C8
:1011D00007FE0F20ADF8000001208DF8020010205E
:1011E0008DF803006946B44800F03EFBF020ADF8EE
:1011F000000028208DF803006946AF4800F034FB5A
:101200000F21AD4800F0DDFBF021AB4800F0DBFB27
:1012100008BD70B50024A84800F0C2FBC0B20F287A
:101220007AD0C82500BF281EA5F10105FBD1A24830
:1012300000F0B6FBC0B20F286FD001219E4800F02D
:10124000C0FB0E219C4800F0BEFB9B4800F0A8FBB1
:10125000C0B2112806D0212806D0412806D0812806
:1012600008D105E0012405E0052403E0092401E09C
:101270000D2400BF00BF02218F4800F0A2FB0D210A
:101280008D4800F0A0FB8C4800F08AFBC0B2122809
:1012900006D0222806D0422806D0822808D105E0B0
:1012A000022405E0062403E0002401E00E2400BF30
:1012B00000BF0421804800F084FB0B217E4800F031
:1012C00082FB7D4800F06CFBC0B2142806D02428B5
:1012D00006D0442806D0842808D105E0032405E080
:1012E000072403E00B2401E00F2400BF00BF082106
:1012F000714800F066FB07216F4800F064FB6E4800
:1013000000F04EFBC0B2182808D0282808D0482882
:1013100008D088280AD107E014E012E0042405E090
:10132000082403E00C2401E0102400BF00BF0F21BB
:10133000614800F046FBF0215F4800F044FB204686
:1013400070BD00BF1420FBE72DE9FC470546894628
:1013500014469A46B9F1140F03D101205749086089
:10136000A8E0564800680128FAD1B9F10D0F12D152
:1013700053480068012804D10020286050490860C3
:1013800004E00420286001204D49086000204B49FA
:101390000860BDE8FC87B9F10E0F03D10020474972
:1013A0000860F6E7B9F10F0F1CD145480068012825
:1013B0000AD1042603E0002044F82600761C072EFC
:1013C000F9DD0420286009E0002603E0002044F84D
:1013D0002600761C032EF9DD002028600020374906
:1013E0000860D6E7B9F1100F4CD16422616851430F
:1013F000A26802EB820201EB4201E268881802F067
:10140000D5F84FF033322F4BCDE9000102F051F8FF
:10141000074602F028F9CAF80000642261695143C6
:10142000A26902EB820201EB4201E269881802F034
:10143000BDF807464FF03332224B02F03AF8CDE9BF
:10144000000102F010F9CAF8040020680B2801DC42
:10145000012000E00020CAF8080020690B2801DC08
:10146000012000E00020CAF80C0020690B2805DDEF
:10147000DAF8040080F00040CAF8040000200F49A8
:10148000086086E7286844F820902868401C286097
:101490000B48006828B92868032807DB0320286068
:1014A00004E02868072801DB0720286000200349A2
:1014B00008606EE700BF6CE7001801409400002050
:1014C00098000020333303400CB5002001900090B9
:1014D0006C48006840F480306A49086000BF694881
:1014E000006800F4003000900198401C01900098C2
:1014F00018B90198B0F5A06FF1D16248006800F406
:10150000003010B10120009001E000200090009810
:10151000012843D15C48006840F010005A49086037
:101520000846006820F0030008600846006840F0A4
:1015300002000860534840685249486008464068C5
:1015400048600846406840F480604860084640684B
:1015500020F47C1048600846406840F4E810486079
:101560000846006840F08070086000BF4548006889
:1015700000F000700028F9D04248406820F00300D5
:10158000404948600846406840F00200486000BF9B
:101590003C48406800F00C000828F9D10CBD10B59B
:1015A000FFF792FF10BD10B53648006840F001000B
:1015B0003449086008464068344908403149486069
:1015C00008460068324908402E490860084600680D
:1015D00020F4802008600846406820F4FE0048603F
:1015E0004FF41F008860FFF7DAFF4FF000602949D1
:1015F000086010BD10B5002100200022214B5B685F
:1016000003F00C0121B1042906D0082928D107E0F4
:10161000214B224C236027E01F4B204C236023E00A
:10162000184B5B6803F47010164B5B6803F4803250
:10163000022303EB904022B9194B4343174C23601C
:101640000DE0104B5B6803F4003323B1144B4343AC
:10165000124C236003E0104B4343104C236003E023
:101660000D4B0E4C236000BF00BF064B5B68C3F3FD
:1016700003130C4CE15C094B1B68CB40074C236007
:1016800010BD000000100240002002400000FFF8E2
:10169000FFFFF6FE08ED00E000127A009C0000203B
:1016A00000093D00A000002006488047064800478A
:1016B000FEE7FEE7FEE7FEE7FEE7FEE7FEE7FEE702
:1016C000FEE7FEE7A7150008310100083149014394
:1016D000314A1160704770B5002100230F22C47891
:1016E00004B32D4C246804F4E064C4F5E064210ADA
:1016F000C1F10403CA40447804FA03F18478144029
:1017000021430901254C0678A155047804F01F05F2
:101710000124AC4005786D11AD0005F1E025C5F858
:10172000004109E0047804F01F050124AC401C4D81
:101730000678761145F8264070BD1A4A0A400243E1
:10174000154B1B1F1A60704739B1134A121D1268DE
:101750000243114B1B1D1A6006E00F4A121D12684E
:1017600082430D4B1B1D1A607047042808D14FF0AF
:10177000E021096941F004014FF0E022116107E026
:101780004FF0E021096921F004014FF0E0221161DE
:10179000704700000000FA050CED00E000E400E0F6
:1017A00080E100E080FFFF1F10B50446CC48844272
:1017B00008D10121042000F02DFB0021042000F0BD
:1017C00029FB46E0C748844208D10121082000F0E7
:1017D00021FB0021082000F01DFB3AE0C2488442B2
:1017E00008D10121102000F015FB0021102000F08D
:1017F00011FB2EE0BD48844208D10121202000F0D9
:1018000009FB0021202000F005FB22E0B8488442BB
:1018100008D10121402000F0FDFA0021402000F015
:10182000F9FA16E0B348844208D10121802000F083
:10183000F1FA0021802000F0EDFA0AE0AE4884427F
:1018400007D10121801500F0E5FA0021A01500F074
:10185000E1FA10BD10B50121084600F0DBFA0021C5
:10186000012000F0D7FA10BD2DE9F0410246002515
:101870000026002000230024002791F803C00CF06C
:101880000F0591F803C00CF0100CBCF1000F03D051
:1018900091F802C04CEA050591F800C0BCF1000FB8
:1018A00031D0146800202BE04FF0010C0CFA00F34B
:1018B000B1F800C00CEA03069E4220D183004FF02D
:1018C0000F0C0CFA03F7BC4305FA03FC4CEA0404C2
:1018D00091F803C0BCF1280F06D14FF0010C0CFAAF
:1018E00000FCC2F814C00AE091F803C0BCF1480F34
:1018F00005D14FF0010C0CFA00FCC2F810C0401CDE
:101900000828D1D31460B1F800C0BCF1FF0F34DD5A
:10191000546800202EE000F1080C4FF0010808FA8E
:101920000CF3B1F800C00CEA03069E4221D18300FB
:101930004FF00F0C0CFA03F7BC4305FA03FC4CEA1A
:10194000040491F803C0BCF1280F05D100F1080C84
:1019500008FA0CF8C2F8148091F803C0BCF1480FE3
:1019600007D100F1080C4FF0010808FA0CF8C2F892
:101970001080401C0828CED35460BDE8F0814FF69B
:10198000FF710180022181700421C17070470246FD
:10199000002093680B400BB1012000E0002070474D
:1019A0000146886880B2704702460020D3680B4029
:1019B0000BB1012000E0002070470146C86880B2EA
:1019C000704701617047416170470AB1016100E0F1
:1019D00041617047C16070474FF480320A438261B1
:1019E0008161826182698269704702460020434BAF
:1019F00018684FF68073184040EA021008433F4BC6
:101A0000186070473E49C8617047F0B50A46002328
:101A100000240021002500F00046B6F1004F02D15D
:101A2000364EF16901E0354E7168C0F3034583B26B
:101A300000F44016B6F5401F08D121F070612F4E1A
:101A4000766826F070662D4F7E6012E000F48016F6
:101A5000B6F5801F06D1032606FA05F4A14341F02E
:101A6000706106E0460D360103FA06F6B14341F017
:101A7000706122B1460D360103FA06F6314300F0DB
:101A80000046B6F1004F02D11C4EF16101E01B4E41
:101A90007160F0BD30B500228B071C0F0F2303FAD5
:101AA00004F2164B08338C1053F824309343134C34
:101AB00008348D1044F8253023468C1053F8243018
:101AC0008C07240F00FA04F423430C4C08348D10C7
:101AD00044F8253030BD0A49DC3108607047000009
:101AE00000080140000C01400010014000140140BA
:101AF00000180140001C014000200140000001408E
:101B000000002042DF48006840F00100DD49086025
:101B100008464068DC490840DA49486008460068E1
:101B2000DA490840D74908600846006820F4802058
:101B300008600846406820F4FE0048604FF41F002B
:101B400088607047CF49096821F48031CD4A11601F
:101B50001146096821F480211160B0F5803F03D05F
:101B6000B0F5802F0ED106E0C649096841F48031F6
:101B7000C44A116007E0C349096841F4A021C14A81
:101B8000116000E000BF00BF704710B501460022A1
:101B9000002300204A11012A02D1BA4C236806E032
:101BA000022A02D1B74C236A01E0B64C636A01F005
:101BB0001F02012494401C400CB1012000E00020D1
:101BC00010BD38B5002000900024002500BF312052
:101BD000FFF7DBFF05460098401C00900098B0F529
:101BE000A06F01D0002DF2D03120FFF7CEFF08B159
:101BF000012400E00024204638BD01460020A14A0F
:101C0000106820F0F80040EAC10010607047A04959
:101C100008607047024600209A4B586820F47C10F8
:101C200042EA01031843974B586070479849086689
:101C3000704701460020934A506820F00300084393
:101C4000506070478F48406800F00C0070470146B4
:101C500000208C4A506820F0F00008435060704724
:101C600001460020874A506820F4E0600843506035
:101C7000704701460020834A506820F4605040EAD3
:101C8000C1005060704729B17E4A527A02437D4BB1
:101C90005A7204E07B4A527A82437A4B5A727047F6
:101CA0007B49D8310860704701460020754A50686A
:101CB00020F440400843506070470021714A2032B0
:101CC0001170704A82F82010012802D004280AD12D
:101CD00004E001216B4A2032117005E00521694AB8
:101CE0002032117000E000BF00BF704769490860F2
:101CF00070476449096A0143624A11627047654945
:101D000044390860704730B50021002200240023C8
:101D10005C4D6D6805F00C0121B1042905D008293E
:101D200023D105E05C4D056022E05B4D05601FE0BE
:101D3000544D6D6805F47012524D6D6805F4803491
:101D4000022505EB92421CB9544D554305600BE04A
:101D50004C4D6D6805F400351DB1504D554305607F
:101D600002E04D4D5543056002E04B4D056000BF5C
:101D700000BF444D6D6805F0F0010909484D6B5CEA
:101D80000568DD4045603F4D6D6805F4E061090A76
:101D9000434D6B5C4568DD4085603A4D6D6805F4E8
:101DA0006051C90A3E4D6B5C4568DD40C560354DEC
:101DB0006D6805F44041890B3A4D6B5CC568B5FB15
:101DC000F3F5056130BD29B12E4A526902432D4B0E
:101DD0005A6104E02B4A526982432A4B5A61704788
:101DE00029B1284A92690243264B9A6104E0254AA8
:101DF00092698243234B9A61704729B1214AD26983
:101E00000243204BDA6104E01E4AD26982431D4B33
:101E1000DA61704729B11B4AD2680243194BDA6074
:101E200004E0184AD2688243164BDA60704729B141
:101E3000144A12690243134B1A6104E0114A1269F1
:101E40008243104B1A61704712494039086070474D
:101E50000F49C86470470B49C87170470948406A08
:101E600040F0807007494862704701460020054AEB
:101E700092680A400AB1012000E000207047014941
:101E800088727047001002400000FFF8FFFFF6FE66
:101E9000000042428004424200127A0000093D00E4
:101EA000B0000020C000002010B50446FE48844267
:101EB00008D10121C014FFF7ADFF0021E014FFF7A6
:101EC000A9FFC4E0B4F1804F08D101210846FFF713
:101ED000AEFF00210120FFF7AAFFB8E0F3488442DB
:101EE00008D101210220FFF7A2FF00210220FFF705
:101EF0009EFFACE0EE48844208D101210420FFF7A8
:101F000096FF00210420FFF792FFA0E0E9488442F9
:101F100008D101210820FFF78AFF00210820FFF7E0
:101F200086FF94E0E448844208D101211020FFF7A5
:101F30007EFF00211020FFF77AFF88E0DF4884420F
:101F400008D101212020FFF772FF00212020FFF798
:101F50006EFF7CE0DA48844208D101214014FFF78B
:101F600059FF00216014FFF755FF70E0D548844207
:101F700009D10121C804FFF74DFF00214FF40020D3
:101F8000FFF748FF63E0D048844209D101210805EA
:101F9000FFF740FF00214FF48010FFF73BFF56E0B2
:101FA000CA48844209D101214805FFF733FF0021C7
:101FB0004FF40010FFF72EFF49E0C548844208D1D6
:101FC00001214020FFF733FF00214020FFF72FFFC2
:101FD0003DE0C048844208D101218020FFF727FF5F
:101FE00000218020FFF723FF31E0BB48844208D165
:101FF00001218015FFF71BFF0021A015FFF717FF38
:1020000025E0B648844209D101210804FFF702FF08
:1020100000214FF48030FFF7FDFE18E0B048844205
:1020200009D101214804FFF7F5FE00214FF40030EB
:10203000FFF7F0FE0BE0AB48844208D10121880491
:10204000FFF7E8FE00214FF48020FFF7E3FE10BD0C
:1020500000220288944B98420ED0994B98420BD0A4
:10206000B0F1804F08D0914B984205D0904B9842E8
:1020700002D0904B984204D14FF68F731A404B8890
:102080001A438D4B984207D08C4B984204D04FF6A0
:10209000FF431A40CB881A4302808B8883850B88C4
:1020A0000385814B98420BD0854B984208D08B4BCF
:1020B000984205D08A4B984202D08A4B984201D16F
:1020C0000B7A038601238382704770B500240022B7
:1020D0000023058C4FF6FE7635400584028C8388FC
:1020E000048B4FF68F752C40B51E2C400D882C4369
:1020F000751E2A400D892A434D882A436A4DA842FD
:102100000BD06F4DA84208D0744DA84205D0744D35
:10211000A84202D0734DA84213D14FF6F7752A405A
:102120004D892A434FF6FB752A408D882A434FF686
:10213000FF652B404FF6FF552B408D892B43CD89F2
:102140002B4383800483CD888586028470BD70B55F
:10215000002400220023058C4FF6EF7635400584DD
:10216000028C8388048B48F6FF752C404FF6FF45A0
:102170002C400D884FF6FF7606EA05252C434FF6D6
:10218000DF752A400D8906EA05152A434D8806EABF
:1021900005152A43444DA84202D0494DA8421DD1FD
:1021A0004FF67F752A404D894FF6FF7606EA0515F2
:1021B0002A434FF6BF752A408D8806EA05152A4343
:1021C0004FF6FF352B404FF2FF752B408D8906EA05
:1021D00085052B43CD8906EA85052B43838004833F
:1021E000CD880587028470BD70B5002400220023CD
:1021F000058C4FF6FF6635400584028C8388848BFE
:102200004FF68F752C404FF6FC752C400D882C43F3
:102210004FF6FF552A400D894FF6FF7606EA052551
:102220002A434D8806EA05252A431F4DA84202D0BD
:10223000234DA8421DD14FF2FF752A404D894FF61C
:10224000FF7606EA05252A434FF6FF352A408D889A
:1022500006EA05252A434EF6FF752B404DF6FF751D
:102260002B408D8906EA05152B43CD8906EA051515
:102270002B4383808483CD888587028470BD70B5AD
:10228000002200230024058C4EF6FF76354005849D
:10229000038C8488828B48F6FF752A404FF6FF45F1
:1022A0002A400D8820E00000002C0140000400407E
:1022B00000080040000C00400010004000140040E6
:1022C00000340140004C01400050014000540140E6
:1022D00000180040001C0040002000400040014069
:1022E00000440140004801404FF6FF7606EA05250C
:1022F0002A434DF6FF752B400D8906EA05352B4321
:102300004D8806EA05352B43FA4DA84202D0FA4D16
:10231000A84208D14BF6FF752C408D894FF6FF7609
:1023200006EA85152C4384808283CD88A0F840502E
:10233000038470BD828B4FF2FF331A408283828BFD
:102340004FF6FF7303EA01231A4382837047F0B507
:102350000C461546002200210026078C4EF6FF7C15
:1023600007EA0C070784828B018C4FF6FF7707EA98
:10237000043640F6FF473A404FF6FF7707EA052755
:102380003A434FF6FF7707EA03373A43D94FB8424B
:102390000ED0D94FB8420BD0B0F1804F08D0D74FF4
:1023A000B84205D0D64FB84202D0D64FB84206D177
:1023B0004DF6FF77394046F48057394305E047F63C
:1023C000FF57394044F48057394382830184F0BD7C
:1023D000828B4FF6F3731A408283828B0A43828387
:1023E0007047F0B50C461546002200210026078CE8
:1023F0004FF6FF6C07EA0C070784828B018C4FF6BF
:10240000FF7707EA04264FF60C773A404FF6FF773E
:1024100007EA03172F433A43B64FB8420ED0B64FE0
:10242000B8420BD0B0F1804F08D0B44FB84205D0BD
:10243000B34FB84202D0B34FB84206D14FF6FF5760
:10244000394046F48077394305E04FF2FF57394071
:1024500044F48077394382830184F0BD028B4FF2CC
:10246000FF331A400283028B4FF6FF7303EA012306
:102470001A4302837047F0B50C461546002200212E
:102480000026078C4FF6EF7C07EA0C070784028BC7
:10249000018C4FF6FF7707EA041640F6FF473A40F3
:1024A0004FF6FF7707EA03373A434FF6FF7707EA1D
:1024B00005273A438F4FB8420ED08F4FB8420BD00A
:1024C000B0F1804F08D08D4FB84205D08C4FB84244
:1024D00002D08C4FB84206D14FF6DF77394046F034
:1024E0001007394305E04FF65F77394044F0100795
:1024F000394302830184F0BD028B4FF6F3731A4017
:102500000283028B0A4302837047F0B50C461546DE
:1025100000220021068C4FF6FE773E400684028B97
:10252000018C4FF60C7632407E1C06EA03162E43D1
:102530003243704EB0420ED06F4EB0420BD0B0F16D
:10254000804F08D06D4EB04205D06D4EB04202D0E3
:102550006C4EB04206D14FF6FD76314044F0010694
:10256000314305E04FF6F576314044F00106314342
:1025700002830184F0BD70B505460C465D48854276
:102580000ED05D4885420BD0B5F1804F08D05B4836
:10259000854205D05A48854202D05A48854200D12A
:1025A00000E000BF208850B92389A28861882846AE
:1025B000FFF7ABFFE1882846FFF79EFF25E0208864
:1025C00004280AD12389A28861882846FFF753FF8F
:1025D000E1882846FFF742FF17E0208808280AD143
:1025E0002389A28861882846FFF7FBFEE1882846F8
:1025F000FFF7EEFE09E02389A28861882846FFF7ED
:10260000A6FEE1882846FFF795FE70BD2DE9F04152
:1026100005460C4600260127608808B9022600E01E
:102620000026A088012801D1022700E00127208888
:10263000A0B92389A28861882846FFF766FFE18850
:102640002846FFF759FF23893A4631462846FFF7C7
:1026500012FFE1882846FFF701FF13E02389A288D3
:1026600061882846FFF707FFE1882846FFF7F6FE56
:1026700023893A4631462846FFF747FFE188284636
:10268000FFF73AFFBDE8F0810A884B881A438B8830
:102690001A43CB881A430B891A434B891A438B89F7
:1026A0001A43A0F8442070474FF6FF718180002143
:1026B0000180C1804180017270470021018041800A
:1026C0008180C180018141818181C1817047002168
:1026D00001804180012181800021C18001817047FA
:1026E0000021018041808180C180018141818181FF
:1026F00070470000002C01400034014000040040FD
:1027000000080040000C004021B1028842F00102A4
:10271000028004E002884FF6FE731A400280704780
:1027200031B1B0F8442042F40042A0F8442005E062
:10273000B0F84420C2F30E02A0F8442070471AB14A
:1027400083890B43838102E083898B4383817047B4
:102750008182704741EA0203A0F8483070471AB1FD
:1027600083890B43838102E083898B438381704794
:1027700001894FF6F8721140018170470A46002125
:1027800001894FF68F73194011430181704730B5AD
:1027900004460D4629462046FFF7F0FF208940F009
:1027A0000700208130BD2DE9F04104460D46164654
:1027B0001F46602D06D13B46012231462046FFF7D9
:1027C0005AFE05E03B46012231462046FFF79DFEBA
:1027D00029462046FFF7D2FF208940F007002081DC
:1027E000BDE8F08130B50C4600210189C9B24FF631
:1027F000FF7505EA0325154325432943018130BDB3
:102800002DE9F04105460E461746984600244346FA
:102810003A4631462846FFF7E5FF2C894FF6F87017
:10282000044044F007044FF68F70044044F07004F5
:102830002C81BDE8F081F0B504460D4616461F46D2
:102840003B46324629462046FFF7CCFF208940F41C
:1028500080402081F0BD0185828270470A460021B8
:1028600001884FF68F731940114301807047F0B50E
:102870000C4615461E460021002200230189028BCA
:10288000038C4FF6F877394021434FF6FC473A4026
:1028900040F201173A434FF6DD773B404FF6FF77A2
:1028A00007EA06172F433B43018102830384F0BDEF
:1028B0000A460021018B4FF68F73194011430183A3
:1028C00070470A460021018B48F6FF7319404FF606
:1028D000FF7303EA02231943018370470A4600216C
:1028E000818B4FF68F7319401143818370470A46DD
:1028F0000021818B48F6FF7319404FF6FF7303EAFE
:10290000022319438183704721B1028842F080027B
:10291000028004E002884FF67F731A4002807047FD
:1029200021B1828842F00402828004E082884FF65E
:10293000FB731A408280704721B1828842F00802FE
:10294000828004E082884FF6F7731A4082807047D5
:1029500021B1828842F00102828004E082884FF631
:10296000FE731A40828070470A460021018B4FF6A1
:10297000F77319401143018370470A460021018B08
:102980004FF2FF7319404FF6FF7303EA0223194316
:10299000018370470A460021818B4FF6F773194077
:1029A0001143818370470A460021818B4FF2FF73E8
:1029B00019404FF6FF7303EA0223194381837047DE
:1029C0000A460021018B4FF6FB7319401143018326
:1029D00070470A460021018B4FF6FF3319404FF62E
:1029E000FF7303EA02231943018370470A4600215B
:1029F000818B4FF6FB7319401143818370470A4660
:102A00000021818B4FF6FF3319404FF6FF7303EA25
:102A100002231943818370470A460021018B4FF638
:102A20007F7319401143018370470A460021018BCF
:102A3000C1F30E014FF6FF7303EA0223194301832A
:102A400070470A460021818B4FF67F73194011436E
:102A5000818370470A460021818BC1F30E014FF636
:102A6000FF7303EA02231943818370470A4600215A
:102A7000018C4FF6FD7319401143018470470A46DB
:102A80000021018C4FF6F773194011430184704700
:102A90000A460021018C4FF6DF7319404FF6FF7391
:102AA00003EA02131943018470470A460021018C8E
:102AB0004FF67F7319404FF6FF7303EA0213194371
:102AC000018470470A460021018C4FF6FF531940DC
:102AD0004FF6FF7303EA02231943018470470A4645
:102AE0000021018C4FF2FF7319404FF6FF7303EA88
:102AF00002231943018470470A460021018C4DF6D8
:102B0000FF7319404FF6FF7303EA02331943018440
:102B1000704730B5002301248C40A3B2048C9C4341
:102B20000484048C02FA01F5ADB22C43048430BD58
:102B300030B5002304248C40A3B2048C9C4304844D
:102B4000048C02FA01F5ADB22C43048430BD70B59B
:102B50000346002000241846183001258D40ACB2F1
:102B60001D8CA5431D8409B1082909D100EB610022
:102B7000056825F0700505600568154305600EE0E1
:102B80000D1FC5F34E052844056825F4E045056092
:102B900005684FF6FF7606EA02263543056070BDEC
:102BA00021B1028842F00202028004E002884FF65E
:102BB000FD731A400280704721B1028842F004027E
:102BC000028004E002884FF6FB731A4002807047CF
:102BD00021B1828842F08002828004E082884FF630
:102BE0007F731A408280704702884FF6F7731A404D
:102BF000028002880A430280704782884FF68F73F2
:102C00001A40828082880A438280704702894FF688
:102C1000F8731A40028102890A43028170470289CF
:102C20004FF67F731A40028102890A43028170477E
:102C3000818470478185704781867047018770471E
:102C400081877047A0F84010704702884FF6FF4315
:102C50001A40028002880A43028070470146888E2B
:102C600070470146088F70470146888F70470146BC
:102C7000B1F8400070470146888C70470146088DC6
:102C8000704702460020138A0B400BB1012000E080
:102C900000207047CA430282704730B502460020C8
:102CA00000230024158A05EA0103958905EA010439
:102CB00013B10CB1012000E0002030BDCA430282F4
:102CC0007047000010B50446FB48844209D1012139
:102CD0008803FFF79FF800214FF48040FFF79AF830
:102CE00032E0F648844209D101214804FFF79FF8F9
:102CF00000214FF40030FFF79AF825E0F0488442B5
:102D000009D101218804FFF792F800214FF48020B7
:102D1000FFF78DF818E0EB48844209D10121C8047F
:102D2000FFF785F800214FF40020FFF780F80BE053
:102D3000E548844208D101210805FFF778F8002111
:102D40004FF48010FFF773F810BD2DE9F04786B0FF
:102D500005460E460024A24600BFA1460027B089C2
:102D600000B100BF2F462C8A4CF6FF700440F0885B
:102D700004432C82AC894EF6F3100440B0883189AC
:102D80000843718908430443AC81AC8A4FF6FF4085
:102D90000440B0890443AC8201A8FEF7B4FFC648E2
:102DA000874202D1DDF810A001E0DDF80CA0A8896F
:102DB00000F4004040B10AEBCA0000EB0A10316891
:102DC0004900B0FBF1F807E00AEBCA0000EB0A107B
:102DD00031688900B0FBF1F86420B8FBF0F0040121
:102DE0002009642101FB1089A88900F4004040B14A
:102DF000322000EBC900B0FBF1F000F00700044303
:102E000008E0322000EB09106421B0FBF1F000F083
:102E10000F0004432C8106B0BDE8F0874FF4165133
:102E2000016000218180C18001810C21418100214C
:102E30008181704710B502460020108A4FF2FF03CF
:102E400018400B884C8823438C882343CC88234329
:102E50001843108210BD0021018041808180C18013
:102E6000704721B1828942F40052828104E0828954
:102E70004DF6FF731A4082817047F0B50346002477
:102E800000260025002040F66A17B94200D100BF95
:102E90001846C1F3421401F01F06012707FA06F590
:102EA000012C01D10C3004E0022C01D1103000E0E3
:102EB00014301AB107682F43076002E00768AF4378
:102EC0000760F0BD1AB1838A0B43838202E0838AD4
:102ED0008B4383827047028A4FF6F0731A40028256
:102EE000028A0A430282704782894FF2FF731A40B6
:102EF000828182890A438281704721B1828942F0AE
:102F00000202828104E082894FF6FD731A408281B9
:102F10007047028A4FF6DF731A400282028A0A4320
:102F20000282704721B1028A42F48042028204E0A8
:102F3000028A4BF6FF731A4002827047C1F30802FF
:102F40008280704701468888C0F3080070478189F5
:102F500041F0010181817047028BD2B20283028B62
:102F600042EA012202837047028B02F47F4202830D
:102F7000028B0A430283704721B1828A42F0200209
:102F8000828204E0828A4FF6DF731A4082827047A1
:102F900021B1828A42F01002828204E0828A4FF6D6
:102FA000EF731A408282704721B1828A42F0080290
:102FB000828204E0828A4FF6F7731A408282704759
:102FC00021B1828942F40042828103E08289C2F306
:102FD0000E028281704721B1828A42F400628282AD
:102FE00004E0828A4FF2FF731A4082827047828A1D
:102FF0004FF6FB731A408282828A0A4382827047AC
:1030000021B1828A42F00202828204E0828A4FF673
:10301000FD731A408282704702460020B1F5007F9E
:1030200000D100BF13880B400BB1012000E000204D
:10303000704701F40072B2F5007F00D100BFCA43AF
:103040000280704770B5024600240023002500204E
:1030500040F66A16B14200D100BFC1F3421501F03B
:103060001F03012606FA03F3012D02D1968933408E
:1030700006E0022D02D1168A334001E0968A3340E1
:103080000C12012606FA04F41688344013B10CB170
:10309000012000E0002070BD10B50022002340F6A2
:1030A0006A14A14200D100BF0A1201249440A3B2C5
:1030B000DC43048010BD00000038014000440040A3
:1030C00000480040004C004000500040D2B201E0F7
:1030D00000F8012B491EFBD270470022F6E710B51D
:1030E00013460A4604461946FFF7F0FF204610BD76
:1030F000F0B480EA0102D40F4200B2EB410F02D2D9
:103100000246084611464A0042D0C30DDDB2C1F363
:10311000C752AD1A202D35DAC1F3160141F4000271
:1031200004B15242C5F1200602FA06F12A411044C8
:10313000B3EBD05F23D0C4B1012DA0EBC35009DCA9
:10314000F0BC4FF0004202EAC352DBB200F50000CF
:1031500000F00ABB400000F1807000EBC350A0F10A
:10316000807040EAD170490009E0490841EAC07125
:10317000A0EBC35000F50000400800EBC350F0BCCA
:1031800000F0E9BA6142012202EB4101001BF6E7BF
:10319000F0BC704781F00041AAE780F00040A7E74B
:1031A00080EA010210B502F00043400022D04A003C
:1031B0001FD0010E01EB1261C0F35600C2F356029C
:1031C00040F4000042F40002A0FB022000047F391A
:1031D000140400D0401C50EA124001D44000491EA3
:1031E000C2B20C0604EBD010401C4008802A02D06A
:1031F00003E0002010BD20F00100002900DA0020CB
:10320000184310BD30B480EA010202F0004530F0EE
:10321000004221F0004013D090B1C30DD40DC2F391
:103220001601C0F31600E41A41F4000140F4000254
:103230007D34914201D3641C00E04900002C02DA85
:1032400030BC002070474FF400000023914201D3AE
:10325000891A034340084FEA4101F7D151B1914225
:1032600002D14FF0004105E002D24FF0010101E030
:103270006FF0010103EBC450284430BC00F06BBA7E
:103280002DE9FE4F804681EA0300C00F0C460090F6
:1032900021F0004123F00045B8EB0200A94105D21E
:1032A0004046214690461C460B46024623F000400D
:1032B000104347D0270DC7F30A00C3F30A51029009
:1032C000401A019040286BDAC3F3130040F4801BCE
:1032D0000098924620B10023D2EB030A63EB0B0B5C
:1032E00001985946C0F14002504600F003FA0646E4
:1032F0000D4650465946019A00F01BFA10EB0800A3
:103300006141002487EA115284EAE7731A4340D0EE
:10331000009A62B3019A012A4FEA075215DC001B9A
:1033200061EB02014FF0004202EA0752CDE9004290
:10333000001C41F5801132462B4600F052FA03B0D2
:10334000BDE8F08F40462146F9E7001B61EB020122
:10335000001C41F5801300185B412018A2F50017EE
:1033600047EB030140EAD570B6196D4111E06D08D5
:103370004FEA360645EAC0754FEA0752001B61EB7B
:103380000201001C41F5801149084FEA3000001984
:10339000514132462B4603B0BDE8F04F00F012BA5F
:1033A0000098012240000023D0EB020263EBE0739F
:1033B000009821464FEAE074B8EB000061EB04018D
:1033C000E9E783F000435BE781F0004158E72DE92E
:1033D000FE4F81EA030404F0004421F00041009410
:1033E0004FF0000B23F0004350EA01045ED052EA94
:1033F00003045BD0C3F30A54C1F30A552C44A4F26E
:10340000F3340194A0FB0254C1F3130141F4801181
:10341000C3F3130343F4801301FB024400FB034E88
:10342000840A970A44EA815447EA8357A4FB076851
:1034300002958D0A05FB07854FEA932C04FB0C547B
:103440002705029D4FEA065847EA1637B5EB0805EF
:103450006EEB070C870E920E47EA811742EA831241
:10346000A7FB0201B6EB0B0164EB00042B0D43EA52
:103470000C335E1844EB1C50DA465146E7FB020160
:10348000C5F313044FEA0B3343EA14534FEA0432F3
:10349000019C43EA0603A4F10C040294009CCDE9CC
:1034A00000B400F09EF903B0BDE8F08F00200146A3
:1034B000F9E72DE9F04D81EA030404F0004B21F017
:1034C000004514464FF0000A23F0004150EA05027F
:1034D00020D054EA01021DD0C5F30A570246C5F3B5
:1034E0001303C1F31300C1F30A5640F4801543F4EB
:1034F0008013A7EB0608101BD64608F2FD3873EBC5
:10350000050002D308F1010801E092185B41B8F10F
:10351000000F03DA00200146BDE8F08D00204FF4D3
:103520008011064684460EE0171B73EB050705D392
:10353000121B63EB050306434CEA010C49084FEAF2
:10354000300092185B4150EA0107EDD152EA0300C6
:1035500012D082EA040083EA0501084305D0101B5B
:10356000AB4106D20122002306E000224FF00043C7
:1035700002E06FF0010253101AEB06004CEB085109
:1035800010EB0A0041EB0B01BDE8F04D00F01AB959
:10359000C10F80EAE0700844CA079623002100F0BA
:1035A000E3B896230022114600F0DEB80EB5C10F35
:1035B00080EAE0700844CA07002140F233438DE8F6
:1035C0000E000A460B4600F00CF903B000BD00F0F7
:1035D000004220F00040C10DC0F3160040F400008E
:1035E0007F2901DA00207047962903DCC1F196019A
:1035F000C84001E096398840002AF4D04042704724
:1036000020F00040C10DC0F3160040F400007F29F7
:1036100001DA00207047962903DCC1F19601C84009
:10362000704796398840704770B5C1F30A5201F06F
:1036300000450024C1F3130140F2FF3341F480112F
:103640009A4201DA002070BD40F233439A42A2F25E
:10365000334203DC524200F05CF800E090402C431F
:10366000F1D0404270BD01F0004330B421F0004180
:1036700050EA010206D00A0DA2F56072C1F31301EF
:10368000002A02DC30BC00207047440F44EAC10429
:10369000C100E01830BC00EBC25000F05CB8000084
:1036A000002801DBC0F10040002901DBC1F100412D
:1036B00081427047002801DBC0F10040002901DB96
:1036C000C1F100418842704730B50B4601460020E9
:1036D0002022012409E021FA02F59D4205D303FAD4
:1036E00002F5491B04FA02F52844151EA2F1010255
:1036F000F1DC30BD202A04DB203A00FA02F1002080
:1037000070479140C2F1200320FA03F3194390401F
:103710007047202A04DB203A21FA02F0002170478A
:1037200021FA02F3D040C2F1200291400843194629
:103730007047202A06DBCB17203A41FA02F043EA11
:10374000E07306E041FA02F3D040C2F1200291405A
:103750000843194670470029A8BF7047401C49001C
:1037600008BF20F00100704710B4B0FA80FC00FAE6
:103770000CF050EA010404BF10BC704749B1CCF111
:10378000200421FA04F411FA0CF118BF012121439D
:103790000843A3EB0C01CB1D4FEA00614FEA102058
:1037A00042BF002010BC704700EBC35010440029FA
:1037B000A4BF10BC7047401C490008BF20F00100A6
:1037C00010BC704710B5141E73F1000408DA401CD9
:1037D00041F1000192185B411A4301D120F0010030
:1037E00010BD2DE9F04D92469B4611B1B1FA81F220
:1037F00002E0B0FA80F220329046FFF77BFF0446E9
:103800000F4640EA0A0041EA0B0153465A46084374
:1038100013D0114653EA010019D0C8F140025046B6
:10382000FFF777FF05460E46504659464246FFF7DA
:1038300061FF084305D0012004E020463946BDE879
:10384000F08D0020054346EAE0762C4337430A9882
:103850006305E40AA0EB08000022FD0A44EA47548D
:103860000A3002D500200146E9E701051019694137
:10387000DDE9084500196941BDE8F04DA2E770B5E2
:1038800021F0004303430CD0C1F30A550024D5EBCB
:10389000040564EB0403D617AD1AB34102DB002024
:1038A000014670BD201841EB025170BD30B5041EB9
:1038B00071F1000404DB4FF00044404264EB01016D
:1038C000141E73F1000405DB1C464FF00043524206
:1038D00063EB0403994208BF904230BD064C074D8C
:1038E00006E0E06840F0010394E8070098471034D0
:1038F000AC42F6D3FCF720FC104700083047000824
:103900002DE9F04D00231A461B1A8A4103DB0020E3
:103910000146BDE8F08DC1F30A52C1F3130141F431
:1039200080154FF0000BD10702D100186D41521ED7
:103930000027044640F2FF11384601EB620A3E467A
:103940008046024600204FF48011FFF7E2FEC219C4
:103950007141BB1846EB0100B4EB030C75EB000C96
:1039600004D3E41A65EB000517460E46241908F146
:1039700001006D4180463428E3DDF91946EB06006D
:10398000091BA84103D24FF0FF32134601E0002289
:1039900013461BEB070046EB0A51BDE8F04DFFF75D
:1039A00011BF00000FB4054B10B503A9044A0298DB
:1039B00000F0A8F810BC5DF814FB00002902000814
:1039C000C4000020490050EAC12018BF04204A0D5D
:1039D00018BF40F0010040F2FF72B2EB515F08BF28
:1039E00040F00200012808BF052070472DE9F04192
:1039F0004F1E00EBC7010446D1E9000115461E46E3
:103A000037F006020DD02A463346FFF7E0FC7F1E52
:103A100004EBC703D3E90023FFF732FC37F00602BB
:103A2000F1D1022F25D0042F13D0062F18BFBDE8E7
:103A3000F0812A463346FFF7CAFCD4E90A23FFF790
:103A40001FFC2A463346FFF7C2FCD4E90823FFF7E0
:103A500017FC2A463346FFF7BAFCD4E90623FFF7E2
:103A60000FFC2A463346FFF7B2FCD4E90423FFF7E4
:103A700007FC2A463346FFF7AAFCD4E90223FFF7E6
:103A8000FFFB2A463346FFF7A2FCD4E90023BDE83A
:103A9000F041FFF7F5BB0000002213461046014934
:103AA000FFF707BD0000F03FFFF7EABB0022134617
:103AB00010461146FFF7FDBC40F2013200204FF0E6
:103AC000E041FFF7DCBE0000024A00201107FFF7CB
:103AD000D6BE000001FDFFFF02E008C8121F08C1AA
:103AE000002AFAD170477047002001E001C1121F7F
:103AF000002AFBD1704700000149086070470000B0
:103B0000C80000202DE9FF4F89B09B4604460025E0
:103B100006E025280BD05A460B999047641C6D1C73
:103B200020780028F5D10DB02846BDE8F08F002799
:103B3000B8460122474900E0074314F8013F203B03
:103B400002FA03F00842F7D120782E2819D114F890
:103B5000010F47F004072A280ED06FF02F022078BB
:103B6000A0F1300109290CD808EB880102EB4101D2
:103B700000EB0108641CF2E70A98641C50F8048BFF
:103B80000A9020780028CED0642808D0692806D072
:103B900075281ED05A460B9990476D1C58E00A991B
:103BA0004FF00A0901C90A91002802DA40422D218A
:103BB00002E0390504D52B218DF82010012103E006
:103BC000F90704D02021F7E78A4608AE0DE000216E
:103BD000FAE70A994FF00A0901C90A91F7E749463D
:103BE000FFF772FD303106F8011D0028F7D1ADEB6B
:103BF000060000F12009780701D44FF00108C845FC
:103C000002DDA8EB090000E000208046002706E066
:103C100008A85A46C05D0B9990476D1C7F1C5745FC
:103C2000F6DB04E030205A460B9990476D1CB8F142
:103C30000001A8F10108F5DC05E016F8010B5A4671
:103C40000B9990476D1CB9F10001A9F10109F4DC51
:103C5000641C65E7092801002DE9F04D1D460C465E
:103C600098B0174621F0004123F00043002814BF0C
:103C70004FF0010C4FF0000C0CEB440CFE4A0CEB27
:103C800002064FEA620C66452BD33E0018BF0126A0
:103C900006EB45061644F94A964222D3F84A53EAFF
:103CA000070C02D0944205D148B918B00020114643
:103CB000BDE8F08D002808BF4FF0000C01D04FF098
:103CC000010C0CEB440212F5001F0AD8002F14BFA0
:103CD0004FF0010C4FF0000C0CEB450212F5001FE9
:103CE00007D918B03A462B462146BDE8F04DFFF7FC
:103CF000DBBE0022DFF88CA3002CB8BF534526DAC8
:103D0000DFF884C36345A8BF022220DADFF870C35E
:103D10009C451CDCDFF874C30CEB235CBCF1140F76
:103D200008DDCCF1340627FA06FC0CFA06F6BE4292
:103D30000DD108E05FB9CCF1140623FA06FC0CFAA9
:103D400006F69E4203D10CF00102C2F1020251EAD2
:103D5000000C19D1002D17DA002C18BF022A01D04F
:103D6000012A07D00220FFF7C7FE18B0BDE8F04DCA
:103D7000FFF792BE0220FFF7BFFEFFF78DFE18B0DF
:103D800081F00041BDE8F08DB7F1000C6CD15345D6
:103D900025D104F1804212F5801201BF00280020D5
:103DA000B74918B008BFBDE8F08DB548884207DCB8
:103DB000002DA1BF6046294618B0BDE8F08D07E090
:103DC000281E05DA80F0004118B06046BDE8F08D8D
:103DD000AF497944D1E9000118B0BDE8F08DDFF8B2
:103DE000A0C2634525D1002D1FDA19B1514512D16A
:103DF000D8B909E0002840F0EC82A24A214618B068
:103E000062F31E01BDE8F08D0020214618B060F37A
:103E10001E01BDE8F08D08DA18B02346BDE8F04D6C
:103E2000024600206146FFF744BB18B02146BDE8BA
:103E3000F08D514518DAB5F1804F0DD0A5F1005C39
:103E4000BCF1FF5C10D1B4F1000C0DDB18B0614681
:103E5000BDE8F04D00F0ECBB234618B00246BDE8CB
:103E6000F04D1946FFF7B3BA060024F0004C3BD1E1
:103E7000D9B1514533D1002C06DD002DA1BF002062
:103E8000514618B0BDE8F08D002C01DD002D1BDB84
:103E9000002C13DA002D11DB012A4FF0000014BFB3
:103EA00078497C4918B0BDE8F08D022A18BF002C73
:103EB0000AD0012A08D1002C06DA0AE0002CB8BF8B
:103EC000002D11DA012A04D0002018B00146BDE807
:103ED000F08D18B000204FF00041BDE8F08DA1F149
:103EE0004050B0F17F601AD0012000EBE47050EA3E
:103EF000020421D0624C521E4FF0000B104304BF4D
:103F00004FF0000B644C654883427CDD644A654891
:103F100093421FDD884217DB002D25DB37E0002CA4
:103F200000DA4AB1022A0CBF01204FF0FF3018B06E
:103F3000BDE8F04DFFF73ABB0120FFF7DDFD18B0FB
:103F4000BDE8F04DFFF7B2BD4D4A8A4202DC002DBC
:103F50000ADC1CE0814202DA002D18DA04E0484B4A
:103F6000994220DD002D12DD0220FFF7C5FDFFF78D
:103F7000A3FD05460E460022534658462146FFF74C
:103F800026FA18B066F31E012846BDE8F08D02201F
:103F9000FFF7B2FDFFF798FD0A46214618B062F31D
:103FA0001E01BDE8F08D002230466146FFF709FA98
:103FB00080460E466FF00102FFF761FC4FF055326C
:103FC000394BFFF701FA42463346FFF700FA002269
:103FD000364BFFF7F9F982464246334604911046C4
:103FE0001946FFF7F4F95246049BFFF7F0F98A46A9
:103FF00000904FF0C0422E4B40463146FFF7E7F9A4
:104000002C4A2B4B00E027E0CDE9060151460098F1
:10401000FFF7DDF982460191274A284B4046314699
:10402000FFF7D5F95246019BFFF7CBF982460B46C5
:1040300002460591DDE90601FFF722F9DDE90623D5
:10404000002688463046FFF7BCF95246059BFFF72D
:10405000BBF9024600F07EB90020B1F5801F07DAF7
:10406000352230466146FFF70AFC06466FF0340001
:1040700000EB215024E00000FFFF1F00FFFF0F00B6
:104080000000F03F0000F07F0000404301FCFFFF14
:10409000320900000000F0FF0000F0BF0000E04126
:1040A0000000F043FFFFEF3F5555D53F0000E03FD4
:1040B0004715F73FFE822B6544DF5DF80BAE543E9B
:1040C000A0F2FF300190C1F3130040F07F6141F096
:1040D00040510291FE498842D8BF002004DDFD49CD
:1040E0008142C8BF012001DD0D9008E000200D9045
:1040F0000198401C01900298A0F58010029002994E
:10410000F54878440B910D9900EBC100D0E90023EC
:104110000F9330460A920B99FFF753F9CDE9060148
:10412000DDE90A2130460F9BFFF7AAF802460B464D
:104130000020EA49FFF7BDF9059102460B460090C1
:10414000DDE90601FFF743F91490E5488A464FF090
:10415000000878440299006812904FF0005040EA3D
:1041600061010D980F9B01EB804000F50021099142
:104170000A9A1298FFF725F932460B9BFFF724F9AC
:1041800042465346FFF723F9064602914046514600
:10419000099B129AFFF71BF9DDE90623FFF714F9D3
:1041A0003246029BFFF70DF9059B009AFFF70FF9C6
:1041B0000091149A0490534610461946FFF707F9E8
:1041C00006460246C7480B46029106217844FFF78F
:1041D0000DFCCDE90510029B324610461946FFF74B
:1041E000F6F8DDE90532FFF7F2F805910646534689
:1041F00040461946149AFFF743F8009B049AFFF7CC
:10420000E6F83246059BFFF73BF8CDE9051042463C
:10421000534610461946FFF7DAF80022B24B0291D6
:104220000A90FFF72DF8DDE90532FFF729F80E4671
:104230004246AD4B4046FFF7C4F8029B0A9AFFF78F
:10424000C0F8DDE90532FFF7BFF8424602910A9057
:10425000334610465146FFF7BAF8CDE906015346FA
:10426000149A02990A98FFF7B2F88A4602903346E8
:10427000424600990498FFF7AAF85346029AFEF7BF
:10428000FFFF82460B4602460591DDE90601FEF777
:10429000F7FFDDE90623002088460646FFF791F880
:1042A0005246059BFFF790F8824609914FF0604215
:1042B0008E4B30464146FFF78AF8049006918C4AAF
:1042C0008A4B50460999FFF782F882460291894A43
:1042D000894B30464146FFF77AF85246029BFEF77B
:1042E000CFFF864B7B440D9A03EBC203D3E9002337
:1042F000FEF7C6FF0E9007910198FFF757F9059159
:10430000DDE9061382460E9A0498FEF7B9FF7C4A4F
:104310007A440D9B02EBC303D3E90023009302927E
:10432000FEF7AEFF5246059BFEF7AAFF0026884621
:1043300052463046059BFFF744F8009B029AFFF770
:1043400040F8069B049AFFF73CF8079B0E9AFFF78C
:104350003BF8024600200B46029038462946FFF7FC
:1043600036F8824601912B4638461946029AFFF7E5
:1043700028F832464346FFF72AF85246019BFEF7DB
:104380007FFF07468A463246434629460298FFF792
:104390001EF805460E463A465346FEF771FF594A47
:1043A0008846914221DBA8EB020353EA000210D1B8
:1043B0002A463346FFF705F8CDE90401524A534B2C
:1043C00038465146FEF75CFFDDE90423FFF76EFA3D
:1043D00021D20220FFF790FBFFF76EFB0A46214631
:1043E00018B062F31E01BDE8F08D494B28F0004281
:1043F0009A4210D3474A08EB020353EA00027FF4C3
:10440000C6AD2A463346FEF7DCFF3A465346FFF771
:104410004DFA7FF6BCAD0022019228F000403E49E3
:104420003E4A01EB2051824223DA481C4FF48011AE
:1044300021FA00F040443A4AC0F30A517A44394B19
:10444000A1F2FF31CB4020EA0303C0F3130040F494
:104450008010C1F11401C84012680190B8F1000F3A
:10446000BCBF4042019028463146FEF7AAFF0546F0
:104470000E462A46334638465146FEF701FF4FF0B6
:1044800000084246284B40460591FEF7A0FFCDE9C3
:104490000601264A264B40460599FEF798FF0091F3
:1044A00002902A46334640460599FEF78AFF3A466F
:1044B0005346FEF789FF1F4A1F4BFEF788FF009BFC
:1044C000029AFEF7DDFE0746884602460B4635E0B7
:1044D0008E9803007AB60B007A0500000000F03FCA
:1044E000B2050000E00400000000084009C7EE3FEC
:1044F000FD033ADCF5015B14E02F3EBEB80300007B
:104500007C03000000009040FE822B654715973C1D
:1045100000CC904000346F3F01FCFFFF0000E03F03
:10452000C8020000FFFF0F00432EE63F396CA80CC5
:10453000615C20BEEF39FAFE422EE63FDDE906015E
:10454000FEF79EFEDDE9062305460E46FEF739FF1F
:104550003A464346FEF738FF0F462A463346009058
:1045600010461946FEF733FF824602462E4888461B
:104570000B4605217844FFF739FA52464346FEF7C9
:1045800026FF2A463346FEF71FFF80468A463B46F3
:1045900028463146009AFEF71AFF3B46009AFEF77E
:1045A0006FFE0691009000224FF080434046514636
:1045B000FEF707FF0F460C90424653462846314609
:1045C000FEF705FF3B460C9AFEF773FF069B009A29
:1045D000FEF7F7FE2A463346FEF7F3FE0022134BA2
:1045E000FEF7F2FE054601980E4601EB0051081554
:1045F000002810DC28463146019AFFF740F9FFF702
:10460000E1F9042808BFFFF75FFA28463146019A0E
:10461000FFF735F905460B4618B02A46584621469D
:10462000BDE8F04DFEF7D3BE680100000000F03F8A
:104630002DE9F04106460F46FFF762F9041E0D46CC
:1046400018BF0120284320F00040C0F17F6000F136
:10465000E040C00F0ED0301C18BF0120384320F0BE
:104660000040C0F17F6000F1E040C00F04BF0120B6
:10467000FFF742FA20462946BDE8F081000000001D
:10468000000000000000F03F000000000000F83FC4
:1046900000000000000000000000004003B8E23FFE
:1046A000000000000000000006D0CF43EBFD4C3EB0
:1046B000033333333333E33FFFAB6FDBB66DDB3FA5
:1046C0004D268F515555D53F01411DA96074D13FED
:1046D00065DBC9934A86CD3FEF4E454A287ECA3FE7
:1046E0003E5555555555C53F93BDBE166CC166BF69
:1046F0002CDE25AF6A56113FF16BD2C541BDBBBE62
:10470000D0A4BE726937663E0000000000000000C1
:104710003047000800000020CC000000D83A000814
:10472000FC470008CC0000203C040000E83A0008E8
:104730000000000000000000000000000000000079
:104740000000000000000000010000000500000063
:10475000000000000000000000007A42000000009D
:104760000000000014000000CDCC8C3FAE47613E3D
:104770000000B03F0000000000000000000000004A
:104780000000000000000000000000003030303069
:104790003030303000000000000000003031323393
:1047A0003435363738394142434445462B2D5F492D
:1047B00056313A004156313A004956323A00415694
:1047C000323A0000010000000000000000A24A048C
:1047D00000000000000000000102030406070809B1
:1047E0000000000001020304010203040607080997
:0C47F000020406080000000000000000A9
:0400000508000131BD
:00000001FF
